{
  "transactions": [
    {
      "hash": "0x8db25ea9992a251b0de261c8ac211e8a77740065aadc90a699aaffa6c857c7f5",
      "transactionType": "CALL",
      "contractName": null,
      "contractAddress": "0x83ecbb94544ac2b381f5a8744a5437b0feed6cda",
      "function": "createReward(string,string,uint8,uint256,uint8,uint256,uint256,uint256,string,bytes32)",
      "arguments": [
        "Cupom de Desconto 10%",
        "10% de desconto na loja oficial do SPFC",
        "0",
        "100",
        "0",
        "1000",
        "1757467592",
        "1789003592",
        "https://spfc.com.br/metadata/cupom-10",
        "0xe9f9b157785ade24fa4d51119ea39f0fc9f3a05bab9822555a88847c7282942d"
      ],
      "transaction": {
        "from": "0xda34ec0b6a1505985db083e4d73d88979a81547a",
        "to": "0x83ecbb94544ac2b381f5a8744a5437b0feed6cda",
        "value": "0x0",
        "input": "0xcf6d06cf0000000000000000000000000000000000000000000000000000000000000140000000000000000000000000000000000000000000000000000000000000018000000000000000000000000000000000000000000000000000000000000000000000000000000000000000000000000000000000000000000000000000000064000000000000000000000000000000000000000000000000000000000000000000000000000000000000000000000000000000000000000000000000000003e80000000000000000000000000000000000000000000000000000000068c0d3c8000000000000000000000000000000000000000000000000000000006aa2074800000000000000000000000000000000000000000000000000000000000001e0e9f9b157785ade24fa4d51119ea39f0fc9f3a05bab9822555a88847c7282942d00000000000000000000000000000000000000000000000000000000000000154375706f6d20646520446573636f6e746f203130250000000000000000000000000000000000000000000000000000000000000000000000000000000000002731302520646520646573636f6e746f206e61206c6f6a61206f66696369616c20646f205350464300000000000000000000000000000000000000000000000000000000000000000000000000000000000000000000000000000000000000002568747470733a2f2f737066632e636f6d2e62722f6d657461646174612f6375706f6d2d3130000000000000000000000000000000000000000000000000000000",
        "nonce": "0xe",
        "chainId": "0x15b32"
      },
      "additionalContracts": [],
      "isFixedGasLimit": false
    },
    {
      "hash": "0xfd90d5a5177c149431901a86bc7927c89cd4d2be8817444aeb5eff7b382160bf",
      "transactionType": "CALL",
      "contractName": null,
      "contractAddress": "0x83ecbb94544ac2b381f5a8744a5437b0feed6cda",
      "function": "createReward(string,string,uint8,uint256,uint8,uint256,uint256,uint256,string,bytes32)",
      "arguments": [
        "Experiencia VIP",
        "Visita guiada ao Morumbi + meet & greet",
        "2",
        "1000",
        "2",
        "50",
        "1757467592",
        "1773019592",
        "https://spfc.com.br/metadata/vip-experience",
        "0x7a03acda2ebcae94f91d38650e5931f28df48dea36ab3701e388fd99488c08bc"
      ],
      "transaction": {
        "from": "0xda34ec0b6a1505985db083e4d73d88979a81547a",
        "to": "0x83ecbb94544ac2b381f5a8744a5437b0feed6cda",
        "value": "0x0",
        "input": "0xcf6d06cf00000000000000000000000000000000000000000000000000000000000001400000000000000000000000000000000000000000000000000000000000000180000000000000000000000000000000000000000000000000000000000000000200000000000000000000000000000000000000000000000000000000000003e8000000000000000000000000000000000000000000000000000000000000000200000000000000000000000000000000000000000000000000000000000000320000000000000000000000000000000000000000000000000000000068c0d3c80000000000000000000000000000000000000000000000000000000069ae21c800000000000000000000000000000000000000000000000000000000000001e07a03acda2ebcae94f91d38650e5931f28df48dea36ab3701e388fd99488c08bc000000000000000000000000000000000000000000000000000000000000000f457870657269656e63696120564950000000000000000000000000000000000000000000000000000000000000000000000000000000000000000000000000275669736974612067756961646120616f204d6f72756d6269202b206d656574202620677265657400000000000000000000000000000000000000000000000000000000000000000000000000000000000000000000000000000000000000002b68747470733a2f2f737066632e636f6d2e62722f6d657461646174612f7669702d657870657269656e6365000000000000000000000000000000000000000000",
        "nonce": "0xf",
        "chainId": "0x15b32"
      },
      "additionalContracts": [],
      "isFixedGasLimit": false
    },
    {
      "hash": "0xe5caedc4b6f7aabb19693364f84e72ae844bdd71c9136b1d968c7bc10bfbc532",
      "transactionType": "CALL",
      "contractName": null,
      "contractAddress": "0x83ecbb94544ac2b381f5a8744a5437b0feed6cda",
      "function": "createReward(string,string,uint8,uint256,uint8,uint256,uint256,uint256,string,bytes32)",
      "arguments": [
        "Camisa Oficial 2024",
        "Camisa oficial do SPFC temporada 2024",
        "1",
        "500",
        "1",
        "200",
        "1757467592",
        "1789003592",
        "https://spfc.com.br/metadata/jersey-2024",
        "0xa71de5008c4054787e321ae6e69ec7c95f374f3cb6df6958a7fc86417610fe1a"
      ],
      "transaction": {
        "from": "0xda34ec0b6a1505985db083e4d73d88979a81547a",
        "to": "0x83ecbb94544ac2b381f5a8744a5437b0feed6cda",
        "value": "0x0",
        "input": "0xcf6d06cf00000000000000000000000000000000000000000000000000000000000001400000000000000000000000000000000000000000000000000000000000000180000000000000000000000000000000000000000000000000000000000000000100000000000000000000000000000000000000000000000000000000000001f4000000000000000000000000000000000000000000000000000000000000000100000000000000000000000000000000000000000000000000000000000000c80000000000000000000000000000000000000000000000000000000068c0d3c8000000000000000000000000000000000000000000000000000000006aa2074800000000000000000000000000000000000000000000000000000000000001e0a71de5008c4054787e321ae6e69ec7c95f374f3cb6df6958a7fc86417610fe1a000000000000000000000000000000000000000000000000000000000000001343616d697361204f66696369616c203230323400000000000000000000000000000000000000000000000000000000000000000000000000000000000000002543616d697361206f66696369616c20646f20535046432074656d706f726164612032303234000000000000000000000000000000000000000000000000000000000000000000000000000000000000000000000000000000000000000000002868747470733a2f2f737066632e636f6d2e62722f6d657461646174612f6a65727365792d32303234000000000000000000000000000000000000000000000000",
        "nonce": "0x10",
        "chainId": "0x15b32"
      },
      "additionalContracts": [],
      "isFixedGasLimit": false
    }
  ],
  "receipts": [
    {
      "status": "0x1",
      "cumulativeGasUsed": "0x56ba5",
      "logs": [
        {
          "address": "0x83ecbb94544ac2b381f5a8744a5437b0feed6cda",
          "topics": [
            "0x06287111dc7e13f8c35885e7c33167ab174f44356e0537125f07dbf2552c5ae9",
            "0x0000000000000000000000000000000000000000000000000000000000000001"
          ],
          "data": "0x0000000000000000000000000000000000000000000000000000000000000040000000000000000000000000000000000000000000000000000000000000000000000000000000000000000000000000000000000000000000000000000000154375706f6d20646520446573636f6e746f203130250000000000000000000000",
          "blockHash": "0xdebe356a2557d8322d268d4bb3d499d5d7c7589c140ee90a64c47fcea13ffa95",
          "blockNumber": "0x1aa7d7b",
          "transactionHash": "0x8db25ea9992a251b0de261c8ac211e8a77740065aadc90a699aaffa6c857c7f5",
          "transactionIndex": "0x0",
          "logIndex": "0x0",
          "removed": false
        }
      ],
      "logsBloom": "0x00000000000000000000004000000000000000000000000000000000800000000000000000000000000000000000000000000000000000000000000000040000000000002000002000000000000000000000000000040000000000000000000000000000000010000000000000000000000000000000000000000000000000000000000000000000000000000000000000000000000000000000000000000000000000000000000000000000000000000000000000000000000000000000000000000000000000000000080000000000000000000000000000000000000040000000000000000000000000000000000000000000000000000000000000000000",
      "type": "0x0",
      "transactionHash": "0x8db25ea9992a251b0de261c8ac211e8a77740065aadc90a699aaffa6c857c7f5",
      "transactionIndex": "0x0",
      "blockHash": "0xdebe356a2557d8322d268d4bb3d499d5d7c7589c140ee90a64c47fcea13ffa95",
      "blockNumber": "0x1aa7d7b",
      "gasUsed": "0x56ba5",
      "effectiveGasPrice": "0x2464f377200",
      "from": "0xda34ec0b6a1505985db083e4d73d88979a81547a",
      "to": "0x83ecbb94544ac2b381f5a8744a5437b0feed6cda",
      "contractAddress": null
    },
    {
      "status": "0x1",
      "cumulativeGasUsed": "0x60735",
      "logs": [
        {
          "address": "0x83ecbb94544ac2b381f5a8744a5437b0feed6cda",
          "topics": [
            "0x06287111dc7e13f8c35885e7c33167ab174f44356e0537125f07dbf2552c5ae9",
            "0x0000000000000000000000000000000000000000000000000000000000000002"
          ],
          "data": "0x00000000000000000000000000000000000000000000000000000000000000400000000000000000000000000000000000000000000000000000000000000002000000000000000000000000000000000000000000000000000000000000000f457870657269656e636961205649500000000000000000000000000000000000",
          "blockHash": "0xb1a9ad4634a613e6a592625b074f44507471783be5ed29ac9ba0b55415df0909",
          "blockNumber": "0x1aa7d7c",
          "transactionHash": "0xfd90d5a5177c149431901a86bc7927c89cd4d2be8817444aeb5eff7b382160bf",
          "transactionIndex": "0x0",
          "logIndex": "0x0",
          "removed": false
        }
      ],
      "logsBloom": "0x04000000000000000000004000000000000000000000000000000000800000000000000000000000000000000000000000000000000000000000000000000000000000002000002000000000000000000000000000000000000000000000000000000000000010000000000000000000000000000000000000000000000000000000000000000000000000000000000000000000000000000000000000000000000000000000000000000100000000000000000000000000000000000000000000000000000000000000080000000000000000000000000000000000000000000000000000000000000000000000000000000000008000000000000000000000",
      "type": "0x0",
      "transactionHash": "0xfd90d5a5177c149431901a86bc7927c89cd4d2be8817444aeb5eff7b382160bf",
      "transactionIndex": "0x0",
      "blockHash": "0xb1a9ad4634a613e6a592625b074f44507471783be5ed29ac9ba0b55415df0909",
      "blockNumber": "0x1aa7d7c",
      "gasUsed": "0x60735",
      "effectiveGasPrice": "0x2464f377200",
      "from": "0xda34ec0b6a1505985db083e4d73d88979a81547a",
      "to": "0x83ecbb94544ac2b381f5a8744a5437b0feed6cda",
      "contractAddress": null
    },
    {
      "status": "0x1",
      "cumulativeGasUsed": "0x6071d",
      "logs": [
        {
          "address": "0x83ecbb94544ac2b381f5a8744a5437b0feed6cda",
          "topics": [
            "0x06287111dc7e13f8c35885e7c33167ab174f44356e0537125f07dbf2552c5ae9",
            "0x0000000000000000000000000000000000000000000000000000000000000003"
          ],
          "data": "0x00000000000000000000000000000000000000000000000000000000000000400000000000000000000000000000000000000000000000000000000000000001000000000000000000000000000000000000000000000000000000000000001343616d697361204f66696369616c203230323400000000000000000000000000",
          "blockHash": "0xbb176622b3accfa3b7ee18d6f2dcf47d6ea12afee56512226a62971f65882aba",
          "blockNumber": "0x1aa7d7e",
          "transactionHash": "0xe5caedc4b6f7aabb19693364f84e72ae844bdd71c9136b1d968c7bc10bfbc532",
          "transactionIndex": "0x0",
          "logIndex": "0x0",
          "removed": false
        }
      ],
      "logsBloom": "0x00000000000000000000004000000000000000000000000000000000800000000000000000000000000000000000000000000000020000000000000000000000000000002000002000000000000000000000000000000000000000000000000000000000000010000000000000000000000000000000000000000000000000000000000000000000000000000000000000000000000000000000000000000000000000000000000000000000000000000000000000800000000000000000400000000000000000000000080000000000000000000000000000000000000000000000000000000000000000000000000000000000000000000000000000000000",
      "type": "0x0",
      "transactionHash": "0xe5caedc4b6f7aabb19693364f84e72ae844bdd71c9136b1d968c7bc10bfbc532",
      "transactionIndex": "0x0",
      "blockHash": "0xbb176622b3accfa3b7ee18d6f2dcf47d6ea12afee56512226a62971f65882aba",
      "blockNumber": "0x1aa7d7e",
      "gasUsed": "0x6071d",
      "effectiveGasPrice": "0x2464f377200",
      "from": "0xda34ec0b6a1505985db083e4d73d88979a81547a",
      "to": "0x83ecbb94544ac2b381f5a8744a5437b0feed6cda",
      "contractAddress": null
    }
  ],
  "libraries": [],
  "pending": [],
  "returns": {},
  "timestamp": 1757467625,
  "chain": 88882,
  "commit": "cb5ebaf"
}