{
  "transactions": [
    {
      "hash": "0x6f52b045def5979c39451c3d100a6933307f41088f96aa2c2e2b661b6e5fb2b5",
      "transactionType": "CALL",
      "contractName": null,
      "contractAddress": "0x9cbc5e170fc00c6c3a7a833c2f2f8ad4651de07b",
      "function": "grantRole(bytes32,address)",
      "arguments": [
        "0x41c4b6457a1878387b597bb2a052bcee5631e58e437f46642248fb614daa0e41",
        "0x5222f06A8Ecd259fB808C85383897f38c68683bF"
      ],
      "transaction": {
        "from": "0xda34ec0b6a1505985db083e4d73d88979a81547a",
        "to": "0x9cbc5e170fc00c6c3a7a833c2f2f8ad4651de07b",
        "value": "0x0",
        "input": "0x2f2ff15d41c4b6457a1878387b597bb2a052bcee5631e58e437f46642248fb614daa0e410000000000000000000000005222f06a8ecd259fb808c85383897f38c68683bf",
        "nonce": "0x3",
        "chainId": "0x15b32"
      },
      "additionalContracts": [],
      "isFixedGasLimit": false
    },
    {
      "hash": "0x988309fe33691511194bec60eaf6e48a84e32165cadc71efd5fb3e771c8bda6e",
      "transactionType": "CALL",
      "contractName": null,
      "contractAddress": "0x5222f06a8ecd259fb808c85383897f38c68683bf",
      "function": "createQuest(string,string,uint8,uint256,uint256,uint256,bool,uint256,bytes32)",
      "arguments": [
        "Scanner QR do Estadio",
        "Escaneie o QR code no Morumbi para ganhar XP",
        "0",
        "100",
        "1757466140",
        "1789002140",
        "true",
        "1000",
        "0xe9ef5ad49f8684219d96a9cf7dc35d31568f675dad9bcc5b985dc5aedefa0757"
      ],
      "transaction": {
        "from": "0xda34ec0b6a1505985db083e4d73d88979a81547a",
        "to": "0x5222f06a8ecd259fb808c85383897f38c68683bf",
        "value": "0x0",
        "input": "0xf8bae48000000000000000000000000000000000000000000000000000000000000001200000000000000000000000000000000000000000000000000000000000000160000000000000000000000000000000000000000000000000000000000000000000000000000000000000000000000000000000000000000000000000000000640000000000000000000000000000000000000000000000000000000068c0ce1c000000000000000000000000000000000000000000000000000000006aa2019c000000000000000000000000000000000000000000000000000000000000000100000000000000000000000000000000000000000000000000000000000003e8e9ef5ad49f8684219d96a9cf7dc35d31568f675dad9bcc5b985dc5aedefa075700000000000000000000000000000000000000000000000000000000000000155363616e6e657220515220646f204573746164696f0000000000000000000000000000000000000000000000000000000000000000000000000000000000002c457363616e656965206f20515220636f6465206e6f204d6f72756d626920706172612067616e6861722058500000000000000000000000000000000000000000",
        "nonce": "0x4",
        "chainId": "0x15b32"
      },
      "additionalContracts": [],
      "isFixedGasLimit": false
    },
    {
      "hash": "0xe826f1487cf0622343caa073e0d6d2c1a8fc5c931e191f01684728e66812b421",
      "transactionType": "CALL",
      "contractName": null,
      "contractAddress": "0x5222f06a8ecd259fb808c85383897f38c68683bf",
      "function": "createQuest(string,string,uint8,uint256,uint256,uint256,bool,uint256,bytes32)",
      "arguments": [
        "Quiz Tricolor",
        "Responda perguntas sobre a historia do SPFC",
        "1",
        "50",
        "1757466140",
        "1789002140",
        "true",
        "5000",
        "0x3fa363530644616ba1d66800e149d0e560d032c570bada6800c1dc5b2e84fc73"
      ],
      "transaction": {
        "from": "0xda34ec0b6a1505985db083e4d73d88979a81547a",
        "to": "0x5222f06a8ecd259fb808c85383897f38c68683bf",
        "value": "0x0",
        "input": "0xf8bae48000000000000000000000000000000000000000000000000000000000000001200000000000000000000000000000000000000000000000000000000000000160000000000000000000000000000000000000000000000000000000000000000100000000000000000000000000000000000000000000000000000000000000320000000000000000000000000000000000000000000000000000000068c0ce1c000000000000000000000000000000000000000000000000000000006aa2019c000000000000000000000000000000000000000000000000000000000000000100000000000000000000000000000000000000000000000000000000000013883fa363530644616ba1d66800e149d0e560d032c570bada6800c1dc5b2e84fc73000000000000000000000000000000000000000000000000000000000000000d5175697a20547269636f6c6f7200000000000000000000000000000000000000000000000000000000000000000000000000000000000000000000000000002b526573706f6e64612070657267756e74617320736f627265206120686973746f72696120646f2053504643000000000000000000000000000000000000000000",
        "nonce": "0x5",
        "chainId": "0x15b32"
      },
      "additionalContracts": [],
      "isFixedGasLimit": false
    },
    {
      "hash": "0x0ac19f032df2f6fa12f9c796697d9a0229f9911e7c645b8833a8c34a6c046438",
      "transactionType": "CALL",
      "contractName": null,
      "contractAddress": "0x5222f06a8ecd259fb808c85383897f38c68683bf",
      "function": "createQuest(string,string,uint8,uint256,uint256,uint256,bool,uint256,bytes32)",
      "arguments": [
        "Palpite do Placar",
        "Adivinhe o placar do proximo jogo",
        "2",
        "200",
        "1757466140",
        "1760058140",
        "false",
        "1000",
        "0x26c8c1a9aa3fbc963af238d462c873c2dc5afdb01cc374d03909e0bcf8b5c3cb"
      ],
      "transaction": {
        "from": "0xda34ec0b6a1505985db083e4d73d88979a81547a",
        "to": "0x5222f06a8ecd259fb808c85383897f38c68683bf",
        "value": "0x0",
        "input": "0xf8bae48000000000000000000000000000000000000000000000000000000000000001200000000000000000000000000000000000000000000000000000000000000160000000000000000000000000000000000000000000000000000000000000000200000000000000000000000000000000000000000000000000000000000000c80000000000000000000000000000000000000000000000000000000068c0ce1c0000000000000000000000000000000000000000000000000000000068e85b1c000000000000000000000000000000000000000000000000000000000000000000000000000000000000000000000000000000000000000000000000000003e826c8c1a9aa3fbc963af238d462c873c2dc5afdb01cc374d03909e0bcf8b5c3cb000000000000000000000000000000000000000000000000000000000000001150616c7069746520646f20506c61636172000000000000000000000000000000000000000000000000000000000000000000000000000000000000000000002141646976696e6865206f20706c6163617220646f2070726f78696d6f206a6f676f00000000000000000000000000000000000000000000000000000000000000",
        "nonce": "0x6",
        "chainId": "0x15b32"
      },
      "additionalContracts": [],
      "isFixedGasLimit": false
    },
    {
      "hash": "0x29fc71e117cdfff3e76839fde569cf852fed8e79a9addc17cd04fd0c7628f0b3",
      "transactionType": "CALL",
      "contractName": null,
      "contractAddress": "0xdf357d33ce5008782bfc623f6c275fa97725e209",
      "function": "createReward(string,string,uint8,uint256,uint8,uint256,uint256,uint256,string,bytes32)",
      "arguments": [
        "Cupom de Desconto 10%",
        "10% de desconto na loja oficial do SPFC",
        "0",
        "100",
        "0",
        "1000",
        "1757466140",
        "1789002140",
        "https://spfc.com.br/metadata/cupom-10",
        "0xe9f9b157785ade24fa4d51119ea39f0fc9f3a05bab9822555a88847c7282942d"
      ],
      "transaction": {
        "from": "0xda34ec0b6a1505985db083e4d73d88979a81547a",
        "to": "0xdf357d33ce5008782bfc623f6c275fa97725e209",
        "value": "0x0",
        "input": "0xcf6d06cf0000000000000000000000000000000000000000000000000000000000000140000000000000000000000000000000000000000000000000000000000000018000000000000000000000000000000000000000000000000000000000000000000000000000000000000000000000000000000000000000000000000000000064000000000000000000000000000000000000000000000000000000000000000000000000000000000000000000000000000000000000000000000000000003e80000000000000000000000000000000000000000000000000000000068c0ce1c000000000000000000000000000000000000000000000000000000006aa2019c00000000000000000000000000000000000000000000000000000000000001e0e9f9b157785ade24fa4d51119ea39f0fc9f3a05bab9822555a88847c7282942d00000000000000000000000000000000000000000000000000000000000000154375706f6d20646520446573636f6e746f203130250000000000000000000000000000000000000000000000000000000000000000000000000000000000002731302520646520646573636f6e746f206e61206c6f6a61206f66696369616c20646f205350464300000000000000000000000000000000000000000000000000000000000000000000000000000000000000000000000000000000000000002568747470733a2f2f737066632e636f6d2e62722f6d657461646174612f6375706f6d2d3130000000000000000000000000000000000000000000000000000000",
        "nonce": "0x7",
        "chainId": "0x15b32"
      },
      "additionalContracts": [],
      "isFixedGasLimit": false
    },
    {
      "hash": "0xa304e491009507d88f8bfdb4e1baadfad1090971c0a8be9a4a1bb1ed9451b3aa",
      "transactionType": "CALL",
      "contractName": null,
      "contractAddress": "0xdf357d33ce5008782bfc623f6c275fa97725e209",
      "function": "createReward(string,string,uint8,uint256,uint8,uint256,uint256,uint256,string,bytes32)",
      "arguments": [
        "Experiencia VIP",
        "Visita guiada ao Morumbi + meet & greet",
        "2",
        "1000",
        "2",
        "50",
        "1757466140",
        "1773018140",
        "https://spfc.com.br/metadata/vip-experience",
        "0x7a03acda2ebcae94f91d38650e5931f28df48dea36ab3701e388fd99488c08bc"
      ],
      "transaction": {
        "from": "0xda34ec0b6a1505985db083e4d73d88979a81547a",
        "to": "0xdf357d33ce5008782bfc623f6c275fa97725e209",
        "value": "0x0",
        "input": "0xcf6d06cf00000000000000000000000000000000000000000000000000000000000001400000000000000000000000000000000000000000000000000000000000000180000000000000000000000000000000000000000000000000000000000000000200000000000000000000000000000000000000000000000000000000000003e8000000000000000000000000000000000000000000000000000000000000000200000000000000000000000000000000000000000000000000000000000000320000000000000000000000000000000000000000000000000000000068c0ce1c0000000000000000000000000000000000000000000000000000000069ae1c1c00000000000000000000000000000000000000000000000000000000000001e07a03acda2ebcae94f91d38650e5931f28df48dea36ab3701e388fd99488c08bc000000000000000000000000000000000000000000000000000000000000000f457870657269656e63696120564950000000000000000000000000000000000000000000000000000000000000000000000000000000000000000000000000275669736974612067756961646120616f204d6f72756d6269202b206d656574202620677265657400000000000000000000000000000000000000000000000000000000000000000000000000000000000000000000000000000000000000002b68747470733a2f2f737066632e636f6d2e62722f6d657461646174612f7669702d657870657269656e6365000000000000000000000000000000000000000000",
        "nonce": "0x8",
        "chainId": "0x15b32"
      },
      "additionalContracts": [],
      "isFixedGasLimit": false
    },
    {
      "hash": "0x85191e2abdd035912492ff356da63e9676de6086d9f6dbc6115ae393051e3ed2",
      "transactionType": "CALL",
      "contractName": null,
      "contractAddress": "0xdf357d33ce5008782bfc623f6c275fa97725e209",
      "function": "createReward(string,string,uint8,uint256,uint8,uint256,uint256,uint256,string,bytes32)",
      "arguments": [
        "Camisa Oficial 2024",
        "Camisa oficial do SPFC temporada 2024",
        "1",
        "500",
        "1",
        "200",
        "1757466140",
        "1789002140",
        "https://spfc.com.br/metadata/jersey-2024",
        "0xa71de5008c4054787e321ae6e69ec7c95f374f3cb6df6958a7fc86417610fe1a"
      ],
      "transaction": {
        "from": "0xda34ec0b6a1505985db083e4d73d88979a81547a",
        "to": "0xdf357d33ce5008782bfc623f6c275fa97725e209",
        "value": "0x0",
        "input": "0xcf6d06cf00000000000000000000000000000000000000000000000000000000000001400000000000000000000000000000000000000000000000000000000000000180000000000000000000000000000000000000000000000000000000000000000100000000000000000000000000000000000000000000000000000000000001f4000000000000000000000000000000000000000000000000000000000000000100000000000000000000000000000000000000000000000000000000000000c80000000000000000000000000000000000000000000000000000000068c0ce1c000000000000000000000000000000000000000000000000000000006aa2019c00000000000000000000000000000000000000000000000000000000000001e0a71de5008c4054787e321ae6e69ec7c95f374f3cb6df6958a7fc86417610fe1a000000000000000000000000000000000000000000000000000000000000001343616d697361204f66696369616c203230323400000000000000000000000000000000000000000000000000000000000000000000000000000000000000002543616d697361206f66696369616c20646f20535046432074656d706f726164612032303234000000000000000000000000000000000000000000000000000000000000000000000000000000000000000000000000000000000000000000002868747470733a2f2f737066632e636f6d2e62722f6d657461646174612f6a65727365792d32303234000000000000000000000000000000000000000000000000",
        "nonce": "0x9",
        "chainId": "0x15b32"
      },
      "additionalContracts": [],
      "isFixedGasLimit": false
    }
  ],
  "receipts": [
    {
      "status": "0x1",
      "cumulativeGasUsed": "0xc84d",
      "logs": [
        {
          "address": "0x9cbc5e170fc00c6c3a7a833c2f2f8ad4651de07b",
          "topics": [
            "0x2f8788117e7eff1d82e926ec794901d17c78024a50270940304540a733656f0d",
            "0x41c4b6457a1878387b597bb2a052bcee5631e58e437f46642248fb614daa0e41",
            "0x0000000000000000000000005222f06a8ecd259fb808c85383897f38c68683bf",
            "0x000000000000000000000000da34ec0b6a1505985db083e4d73d88979a81547a"
          ],
          "data": "0x",
          "blockHash": "0xfdc87f062df41adc89dbfe9cd5b76bee0707a01d698a3e4c1a2b01f2f993c875",
          "blockNumber": "0x1aa7b9a",
          "transactionHash": "0x6f52b045def5979c39451c3d100a6933307f41088f96aa2c2e2b661b6e5fb2b5",
          "transactionIndex": "0x0",
          "logIndex": "0x0",
          "removed": false
        }
      ],
      "logsBloom": "0x00000004000000000000000000000000000000000000000000000000000000000000040000000000000000000000000000000000000000000000000000000000000000000000000000000000000000000000000000020000000000000000000000000000010000000000000000000000000000000000000000000000000000000000000000000000000000000000000000000000000000000001000000000000012800800000000000000000000000000000000000000010001000000000000000000000000000000000000000000000000000000000000100000000000800000000000000000000000000001000000000000000000000000000040000000000",
      "type": "0x0",
      "transactionHash": "0x6f52b045def5979c39451c3d100a6933307f41088f96aa2c2e2b661b6e5fb2b5",
      "transactionIndex": "0x0",
      "blockHash": "0xfdc87f062df41adc89dbfe9cd5b76bee0707a01d698a3e4c1a2b01f2f993c875",
      "blockNumber": "0x1aa7b9a",
      "gasUsed": "0xc84d",
      "effectiveGasPrice": "0x2464f377200",
      "from": "0xda34ec0b6a1505985db083e4d73d88979a81547a",
      "to": "0x9cbc5e170fc00c6c3a7a833c2f2f8ad4651de07b",
      "contractAddress": null
    },
    {
      "status": "0x1",
      "cumulativeGasUsed": "0x45a78",
      "logs": [
        {
          "address": "0x5222f06a8ecd259fb808c85383897f38c68683bf",
          "topics": [
            "0xd46c8f23364f00e490c88cd3b267e9c0c5756e9209780eecd1abfc00f4ac7191",
            "0x0000000000000000000000000000000000000000000000000000000000000001"
          ],
          "data": "0x00000000000000000000000000000000000000000000000000000000000000600000000000000000000000000000000000000000000000000000000000000000000000000000000000000000000000000000000000000000000000000000006400000000000000000000000000000000000000000000000000000000000000155363616e6e657220515220646f204573746164696f0000000000000000000000",
          "blockHash": "0x0bd622a60632afa0ab544c47d36e45f6137b9fe4f6c5d21a41cf5415872a0208",
          "blockNumber": "0x1aa7b9b",
          "transactionHash": "0x988309fe33691511194bec60eaf6e48a84e32165cadc71efd5fb3e771c8bda6e",
          "transactionIndex": "0x0",
          "logIndex": "0x0",
          "removed": false
        }
      ],
      "logsBloom": "0x00000000000000000000000000000000008000000000000000000000000000000000000000000000000000000000000000000000000000000000000200040000000000000000000000000000000000000000000000040000000000000000000000000000000000000000000000000000000000000000000000000000000000000000000000200000000000000000000000000000000000000000000000000000010000000000000000000000000000000000000000000000000000200000000000000000000000000000000000000000000000000000000000000000000040000000000000000000000000000000000000000000000004000000000000000000",
      "type": "0x0",
      "transactionHash": "0x988309fe33691511194bec60eaf6e48a84e32165cadc71efd5fb3e771c8bda6e",
      "transactionIndex": "0x0",
      "blockHash": "0x0bd622a60632afa0ab544c47d36e45f6137b9fe4f6c5d21a41cf5415872a0208",
      "blockNumber": "0x1aa7b9b",
      "gasUsed": "0x45a78",
      "effectiveGasPrice": "0x2464f377200",
      "from": "0xda34ec0b6a1505985db083e4d73d88979a81547a",
      "to": "0x5222f06a8ecd259fb808c85383897f38c68683bf",
      "contractAddress": null
    },
    {
      "status": "0x1",
      "cumulativeGasUsed": "0x4a7bc",
      "logs": [
        {
          "address": "0x5222f06a8ecd259fb808c85383897f38c68683bf",
          "topics": [
            "0xd46c8f23364f00e490c88cd3b267e9c0c5756e9209780eecd1abfc00f4ac7191",
            "0x0000000000000000000000000000000000000000000000000000000000000002"
          ],
          "data": "0x000000000000000000000000000000000000000000000000000000000000006000000000000000000000000000000000000000000000000000000000000000010000000000000000000000000000000000000000000000000000000000000032000000000000000000000000000000000000000000000000000000000000000d5175697a20547269636f6c6f7200000000000000000000000000000000000000",
          "blockHash": "0x3f360be9d85c26a1435198d23d247b6df3bb0443a32e9d3475168611346b5ebd",
          "blockNumber": "0x1aa7b9c",
          "transactionHash": "0xe826f1487cf0622343caa073e0d6d2c1a8fc5c931e191f01684728e66812b421",
          "transactionIndex": "0x0",
          "logIndex": "0x0",
          "removed": false
        }
      ],
      "logsBloom": "0x04000000000000000000000000000000008000000000000000000000000000000000000000000000000000000000000000000000000000000000000200000000000000000000000000000000000000000000000000000000000000000000000000000000000000000000000000000000000000000000000000000000000000000000000000200000000000000000000000000000000000000000000000000000010000000000000000000100000000000000000000000000000000200000000000000000000000000000000000000000000000000000000000000000000000000000000000000000000000000000000000000000008004000000000000000000",
      "type": "0x0",
      "transactionHash": "0xe826f1487cf0622343caa073e0d6d2c1a8fc5c931e191f01684728e66812b421",
      "transactionIndex": "0x0",
      "blockHash": "0x3f360be9d85c26a1435198d23d247b6df3bb0443a32e9d3475168611346b5ebd",
      "blockNumber": "0x1aa7b9c",
      "gasUsed": "0x4a7bc",
      "effectiveGasPrice": "0x2464f377200",
      "from": "0xda34ec0b6a1505985db083e4d73d88979a81547a",
      "to": "0x5222f06a8ecd259fb808c85383897f38c68683bf",
      "contractAddress": null
    },
    {
      "status": "0x1",
      "cumulativeGasUsed": "0x459c4",
      "logs": [
        {
          "address": "0x5222f06a8ecd259fb808c85383897f38c68683bf",
          "topics": [
            "0xd46c8f23364f00e490c88cd3b267e9c0c5756e9209780eecd1abfc00f4ac7191",
            "0x0000000000000000000000000000000000000000000000000000000000000003"
          ],
          "data": "0x0000000000000000000000000000000000000000000000000000000000000060000000000000000000000000000000000000000000000000000000000000000200000000000000000000000000000000000000000000000000000000000000c8000000000000000000000000000000000000000000000000000000000000001150616c7069746520646f20506c61636172000000000000000000000000000000",
          "blockHash": "0xed4d15fce71ec612c88ccac1858a4743a8e09b84e93b84e941008979b211cfaf",
          "blockNumber": "0x1aa7b9d",
          "transactionHash": "0x0ac19f032df2f6fa12f9c796697d9a0229f9911e7c645b8833a8c34a6c046438",
          "transactionIndex": "0x0",
          "logIndex": "0x0",
          "removed": false
        }
      ],
      "logsBloom": "0x00000000000000000000000000000000008000000000000000000000000000000000000000000000000000000000000000000000020000000000000200000000000000000000000000000000000000000000000000000000000000000000000000000000000000000000000000000000000000000000000000000000000000000000000000200000000000000000000000000000000000000000000000000000010000000000000000000000000000000000000000800000000000200000400000000000000000000000000000000000000000000000000000000000000000000000000000000000000000000000000000000000000004000000000000000000",
      "type": "0x0",
      "transactionHash": "0x0ac19f032df2f6fa12f9c796697d9a0229f9911e7c645b8833a8c34a6c046438",
      "transactionIndex": "0x0",
      "blockHash": "0xed4d15fce71ec612c88ccac1858a4743a8e09b84e93b84e941008979b211cfaf",
      "blockNumber": "0x1aa7b9d",
      "gasUsed": "0x459c4",
      "effectiveGasPrice": "0x2464f377200",
      "from": "0xda34ec0b6a1505985db083e4d73d88979a81547a",
      "to": "0x5222f06a8ecd259fb808c85383897f38c68683bf",
      "contractAddress": null
    },
    {
      "status": "0x1",
      "cumulativeGasUsed": "0x56ba5",
      "logs": [
        {
          "address": "0xdf357d33ce5008782bfc623f6c275fa97725e209",
          "topics": [
            "0x06287111dc7e13f8c35885e7c33167ab174f44356e0537125f07dbf2552c5ae9",
            "0x0000000000000000000000000000000000000000000000000000000000000001"
          ],
          "data": "0x0000000000000000000000000000000000000000000000000000000000000040000000000000000000000000000000000000000000000000000000000000000000000000000000000000000000000000000000000000000000000000000000154375706f6d20646520446573636f6e746f203130250000000000000000000000",
          "blockHash": "0xd73017b9e248d3f47a8cb59c09273fe8ad1adc1f8efe707fccbb4bcec18c2143",
          "blockNumber": "0x1aa7b9e",
          "transactionHash": "0x29fc71e117cdfff3e76839fde569cf852fed8e79a9addc17cd04fd0c7628f0b3",
          "transactionIndex": "0x0",
          "logIndex": "0x0",
          "removed": false
        }
      ],
      "logsBloom": "0x00000000000000000000004000000000000000000000000000000000000000000000000000000000000000000000000000000000000000000000000000040000000000000000002000000000000000000000000000040000000000000000000000000000000000000000000000000000000000000000001000000000000000000000000000000000000000000000000000000000000000000000000000000000000000000000000000000000000000000000000000000080000000000000000000000000000000000000080000000008000000000000000000000000000040000000000000000000000000000000000000000000000000000000000000000000",
      "type": "0x0",
      "transactionHash": "0x29fc71e117cdfff3e76839fde569cf852fed8e79a9addc17cd04fd0c7628f0b3",
      "transactionIndex": "0x0",
      "blockHash": "0xd73017b9e248d3f47a8cb59c09273fe8ad1adc1f8efe707fccbb4bcec18c2143",
      "blockNumber": "0x1aa7b9e",
      "gasUsed": "0x56ba5",
      "effectiveGasPrice": "0x2464f377200",
      "from": "0xda34ec0b6a1505985db083e4d73d88979a81547a",
      "to": "0xdf357d33ce5008782bfc623f6c275fa97725e209",
      "contractAddress": null
    },
    {
      "status": "0x1",
      "cumulativeGasUsed": "0x60735",
      "logs": [
        {
          "address": "0xdf357d33ce5008782bfc623f6c275fa97725e209",
          "topics": [
            "0x06287111dc7e13f8c35885e7c33167ab174f44356e0537125f07dbf2552c5ae9",
            "0x0000000000000000000000000000000000000000000000000000000000000002"
          ],
          "data": "0x00000000000000000000000000000000000000000000000000000000000000400000000000000000000000000000000000000000000000000000000000000002000000000000000000000000000000000000000000000000000000000000000f457870657269656e636961205649500000000000000000000000000000000000",
          "blockHash": "0xdac770a2db7a13ecc2680f022f0826b69c199046ee9688b25db3383196d8f60a",
          "blockNumber": "0x1aa7b9f",
          "transactionHash": "0xa304e491009507d88f8bfdb4e1baadfad1090971c0a8be9a4a1bb1ed9451b3aa",
          "transactionIndex": "0x0",
          "logIndex": "0x0",
          "removed": false
        }
      ],
      "logsBloom": "0x04000000000000000000004000000000000000000000000000000000000000000000000000000000000000000000000000000000000000000000000000000000000000000000002000000000000000000000000000000000000000000000000000000000000000000000000000000000000000000000001000000000000000000000000000000000000000000000000000000000000000000000000000000000000000000000000000000100000000000000000000000080000000000000000000000000000000000000080000000008000000000000000000000000000000000000000000000000000000000000000000000000008000000000000000000000",
      "type": "0x0",
      "transactionHash": "0xa304e491009507d88f8bfdb4e1baadfad1090971c0a8be9a4a1bb1ed9451b3aa",
      "transactionIndex": "0x0",
      "blockHash": "0xdac770a2db7a13ecc2680f022f0826b69c199046ee9688b25db3383196d8f60a",
      "blockNumber": "0x1aa7b9f",
      "gasUsed": "0x60735",
      "effectiveGasPrice": "0x2464f377200",
      "from": "0xda34ec0b6a1505985db083e4d73d88979a81547a",
      "to": "0xdf357d33ce5008782bfc623f6c275fa97725e209",
      "contractAddress": null
    },
    {
      "status": "0x1",
      "cumulativeGasUsed": "0x6071d",
      "logs": [
        {
          "address": "0xdf357d33ce5008782bfc623f6c275fa97725e209",
          "topics": [
            "0x06287111dc7e13f8c35885e7c33167ab174f44356e0537125f07dbf2552c5ae9",
            "0x0000000000000000000000000000000000000000000000000000000000000003"
          ],
          "data": "0x00000000000000000000000000000000000000000000000000000000000000400000000000000000000000000000000000000000000000000000000000000001000000000000000000000000000000000000000000000000000000000000001343616d697361204f66696369616c203230323400000000000000000000000000",
          "blockHash": "0xe17a7528241147f6b4d0d9cace110879387a49a522ba873b1b56d305060d4df2",
          "blockNumber": "0x1aa7ba0",
          "transactionHash": "0x85191e2abdd035912492ff356da63e9676de6086d9f6dbc6115ae393051e3ed2",
          "transactionIndex": "0x0",
          "logIndex": "0x0",
          "removed": false
        }
      ],
      "logsBloom": "0x00000000000000000000004000000000000000000000000000000000000000000000000000000000000000000000000000000000020000000000000000000000000000000000002000000000000000000000000000000000000000000000000000000000000000000000000000000000000000000000001000000000000000000000000000000000000000000000000000000000000000000000000000000000000000000000000000000000000000000000000000800080000000000000400000000000000000000000080000000008000000000000000000000000000000000000000000000000000000000000000000000000000000000000000000000000",
      "type": "0x0",
      "transactionHash": "0x85191e2abdd035912492ff356da63e9676de6086d9f6dbc6115ae393051e3ed2",
      "transactionIndex": "0x0",
      "blockHash": "0xe17a7528241147f6b4d0d9cace110879387a49a522ba873b1b56d305060d4df2",
      "blockNumber": "0x1aa7ba0",
      "gasUsed": "0x6071d",
      "effectiveGasPrice": "0x2464f377200",
      "from": "0xda34ec0b6a1505985db083e4d73d88979a81547a",
      "to": "0xdf357d33ce5008782bfc623f6c275fa97725e209",
      "contractAddress": null
    }
  ],
  "libraries": [],
  "pending": [],
  "returns": {},
  "timestamp": 1757466191,
  "chain": 88882,
  "commit": "cb5ebaf"
}